:100000000C9446000C9465000C9465000C946500FB
:100010000C9465000C9465000C9465000C946500CC
:100020000C9465000C9465000C9465000C946500BC
:100030000C9465000C9465000C9465000C946500AC
:100040000C9465000C9465000C9465000C9465009C
:100050000C9465000C9465000C9465000C9465008C
:100060000C9465000C9465000C9465000C9465007C
:100070000C9465000C9465000C9465000C9465006C
:100080000C9465000C9465000C94650011241FBE4F
:10009000CFEFD0E4DEBFCDBF11E0A0E0B1E0EAE3F6
:1000A000F8E000E00BBF02C007900D92AA34B10740
:1000B000D9F711E0AAE4B1E001C01D92A635B1075D
:1000C000E1F70E9483020C941B040C940000CF9370
:1000D000DF9300D01F92CDB7DEB789837B836A831D
:1000E00089818A3031F48A819B81BC018DE00E9434
:1000F000670080EC90E0FC018081882F90E08072A6
:1001000099270097B1F386EC90E02981FC012083C8
:1001100080E090E00F900F900F90DF91CF910895C5
:100120000F931F93CF93DF9300D000D0CDB7DEB7EE
:1001300069837A838B839C8380914B0190914C01DE
:10014000A0914D01B0914E019C01AD0169817A8170
:100150008B819C810E94A202882309F477C020E051
:1001600030E0A90169817A818B819C810E94A20281
:10017000882351F481E990E021E930E0F901208100
:100180002870FC01208309C081E990E021E930E07A
:10019000F90120812360FC01208328E539E344E74D
:1001A0005FE369817A818B819C810E94A20288230E
:1001B00044F488E990E02FEF3FEFFC013183208386
:1001C00034C020E034E244EF56E469817A818B81C7
:1001D0009C810E94B403181634F488E990E0FC0175
:1001E0001182108222C008E910E020E030E040E0F7
:1001F00053E469817A818B819C810E94B803DC0180
:10020000CB019C01AD0160E074E284EF9AE40E94AE
:10021000A602DC01CB01BC01CD010E940E03DC0172
:10022000CB010197F8019183808384E990E0FC0180
:100230001182108289819A81AB81BC8180934B01AC
:1002400090934C01A0934D01B0934E010F900F90ED
:100250000F900F90DF91CF911F910F910895CF9341
:10026000DF93CDB7DEB780E990E020E4FC01208386
:1002700081E990E02BE0FC01208360E070E0CB019D
:100280000E949000DF91CF910895CF93DF93CDB777
:10029000DEB780E990E0FC01108281E990E0FC018A
:1002A0001082DF91CF910895CF93DF93CDB7DEB762
:1002B00080914F019091500181309105B9F08130CA
:1002C000910540F082309105C1F18330910509F428
:1002D000C8C0EAC060E070E0CB010E94900081E0FD
:1002E00090E09093500180934F01E3C080E290E052
:1002F000FC018081882F90E081709927009759F444
:1003000010924A011092550182E090E090935001C2
:1003100080934F0111C080E290E0FC018081882F22
:1003200090E081709927009739F081E090E09093F8
:10033000500180934F01BDC0BCC080914A018B30F9
:1003400079F580914A01882F90E0825C9E4FFC01F4
:10035000908180915501981719F580E290E0FC0199
:100360008081882F90E081709927009739F081E093
:1003700090E09093500180934F0111C080E290E093
:10038000FC018081882F90E081709927009739F4D3
:1003900083E090E09093500180934F0161C060C072
:1003A00080914A01882F90E0825C9E4FFC019081F1
:1003B00080915501981729F51092550180914A01B5
:1003C0008F5F80934A0180914A01882F90E0880FC7
:1003D000991F880F991F825F9E4FFC018081918138
:1003E000A281B3818093510190935201A093530154
:1003F000B093540182E090E09093500180934F01BC
:100400002FC080914A01882F90E0825C9E4FFC01B2
:10041000908180915501891718F5809155018F5F62
:100420008093550180914A01882F90E0880F991F91
:10043000880F991F825F9E4FFC0180819181A2816C
:10044000B3818093510190935201A0935301B093D3
:10045000540182E090E09093500180934F0129C0B5
:1004600028C080E290E0FC018081882F90E08170BC
:100470009927009739F081E090E0909350018093A4
:100480004F0111C080E290E0FC018081882F90E054
:1004900081709927009739F483E090E090935001A0
:1004A00080934F0106C005C01092500110924F0179
:1004B000000080914F01909150018230910569F0C8
:1004C00083309105B9F08130910509F019C060E0E1
:1004D00070E0CB010E94900013C080915101909177
:1004E0005201A0915301B0915401BC01CD010E9471
:1004F000900006C060E070E0CB010E949000000018
:10050000DF91CF910895CF93DF93CDB7DEB781E22E
:1005100090E0FC01108282E290E02FEFFC0120834A
:1005200084E290E02FEFFC01208385E290E0FC0163
:1005300010820E942F011092500110924F010E94D0
:100540005401FDCF9CD008F481E008950CD0D2C0B6
:10055000CAD040F0C1D030F021F45F3F19F0B3C0F1
:100560005111FCC0B6C0D7D098F39923C9F35523D5
:10057000B1F3951B550BBB27AA2762177307840796
:1005800038F09F5F5F4F220F331F441FAA1FA9F34C
:1005900033D00E2E3AF0E0E830D091505040E6953E
:1005A000001CCAF729D0FE2F27D0660F771F881F9F
:1005B000BB1F261737074807AB07B0E809F0BB0B8E
:1005C000802DBF01FF2793585F4F2AF09E3F5105B2
:1005D00068F079C0C3C05F3FECF3983EDCF38695CA
:1005E00077956795B795F7959F5FC9F7880F911D28
:1005F0009695879597F90895E1E0660F771F881F14
:10060000BB1F621773078407BA0720F0621B730BC6
:10061000840BBA0BEE1F88F7E095089504D0689418
:10062000B1119CC008957FD088F09F5790F0B92FEA
:100630009927B751A0F0D1F0660F771F881F991F37
:100640001AF0BA95C9F712C0B13081F086D0B1E086
:10065000089583C0672F782F8827B85F39F0B93F96
:10066000CCF3869577956795B395D9F73EF4909539
:100670008095709561957F4F8F4F9F4F0895990F8B
:100680000008550FAA0BE0E8FEEF16161706E8075C
:10069000F907C0F012161306E407F50798F0621B7D
:1006A000730B840B950B39F40A2661F0232B242B52
:1006B000252B21F408950A2609F4A140A6958FEF71
:1006C000811D811D089597F99F6780E870E060E0C3
:1006D00008959FEF80EC089500240A9416161706DB
:1006E00018060906089500240A9412161306140623
:1006F00005060895092E0394000C11F4882352F086
:10070000BB0F40F4BF2B11F460FF04C06F5F7F4F3D
:100710008F4F9F4F089557FD9058440F551F59F024
:100720005F3F71F04795880F97FB991F61F09F3FDE
:1007300079F087950895121613061406551FF2CF07
:100740004695F1DF08C0161617061806991FF1CF57
:1007500086957105610508940895E894BB2766277E
:100760007727CB0197F908958ADF08F48FEF089572
:100770000BD0C0CFB1DF28F0B6DF18F0952309F019
:10078000A2CFA7CF1124EACFC6DFA0F3959FD1F364
:10079000950F50E0551F629FF001729FBB27F00D2F
:1007A000B11D639FAA27F00DB11DAA1F649F662784
:1007B000B00DA11D661F829F2227B00DA11D621FD3
:1007C000739FB00DA11D621F839FA00D611D221F8D
:1007D000749F3327A00D611D231F849F600D211D71
:1007E000822F762F6A2F11249F5750408AF0E1F014
:1007F00088234AF0EE0FFF1FBB1F661F771F881F5D
:1008000091505040A9F79E3F510570F05CCFA6CFA4
:100810005F3FECF3983EDCF3869577956795B79547
:10082000F795E7959F5FC1F7FE2B880F911D969571
:0A083000879597F90895F894FFCF1B
:10083A000000000200000000670000000000A4D0D1
:10084A00A443A4D082430000C4430000DC4300D088
:10085A00024400000000A4D0A4437BD49243719DBB
:10086A00AE430000DC4300D002440000C443050448
:0A087A000202060A0202020404074B
:00000001FF
