:100000000C9446000C9465000C9465000C946500FB
:100010000C9465000C9465000C9465000C946500CC
:100020000C9465000C9465000C9465000C946500BC
:100030000C9465000C9465000C9465000C946500AC
:100040000C9465000C9465000C9465000C9465009C
:100050000C9465000C9465000C9465000C9465008C
:100060000C9465000C9465000C9465000C9465007C
:100070000C9465000C9465000C9465000C9465006C
:100080000C9465000C9465000C94650011241FBE4F
:10009000CFEFD0E4DEBFCDBF11E0A0E0B1E0E4EBF4
:1000A000F9E000E00BBF02C007900D92AE32B1073D
:1000B000D9F711E0AEE2B1E001C01D92AB33B10758
:1000C000E1F70E943A030C94D8040C940000CF93FB
:1000D000DF9300D01F92CDB7DEB789837B836A831D
:1000E00089818A3031F48A819B81BC018DE00E9434
:1000F000670080EC90E0FC018081882F90E08072A6
:1001000099270097B1F386EC90E02981FC012083C8
:1001100080E090E00F900F900F90DF91CF910895C5
:100120000F931F93CF93DF9300D000D0CDB7DEB7EE
:1001300069837A838B839C8380912F019091300116
:10014000A0913101B09132019C01AD0169817A81A8
:100150008B819C810E945F03882309F477C020E093
:1001600030E0A90169817A818B819C810E945F03C3
:10017000882351F481E990E021E930E0F901208100
:100180002870FC01208309C081E990E021E930E07A
:10019000F90120812360FC01208328E539E344E74D
:1001A0005FE369817A818B819C810E945F03882350
:1001B00044F488E990E02FEF3FEFFC013183208386
:1001C00034C020E034E244EF56E469817A818B81C7
:1001D0009C810E947104181634F488E990E0FC01B7
:1001E0001182108222C008E910E020E030E040E0F7
:1001F00053E469817A818B819C810E947504DC01C2
:10020000CB019C01AD0160E074E284EF9AE40E94AE
:100210006303DC01CB01BC01CD010E94CB03DC01F7
:10022000CB010197F8019183808384E990E0FC0180
:100230001182108289819A81AB81BC8180932F01C8
:1002400090933001A0933101B09332010F900F9041
:100250000F900F90DF91CF911F910F910895CF9341
:10026000DF93CDB7DEB780E990E020E4FC01208386
:1002700081E990E02BE0FC01208360E070E0CB019D
:100280000E949000DF91CF910895CF93DF93CDB777
:10029000DEB780E990E0FC01108281E990E0FC018A
:1002A0001082DF91CF910895CF93DF93CDB7DEB762
:1002B00080913301909134018230910509F441C05D
:1002C0008330910530F4009769F081309105B1F0E9
:1002D000A1C08330910509F457C08430910509F419
:1002E00076C098C060E070E0CB010E94900081E091
:1002F00090E0909334018093330191C080E290E0CC
:10030000FC018081882F90E081709927009739F453
:1003100082E090E0909334018093330111C080E239
:1003200090E0FC018081882F90E0817099270097F0
:1003300039F081E090E090933401809333016FC0F5
:100340006EC080E290E0FC018081882F90E0817097
:100350009927009739F083E090E0909334018093DF
:10036000330111C080E290E0FC018081882F90E091
:1003700081709927009739F482E090E090933401DE
:10038000809333014CC04BC080E290E0FC0180813F
:10039000882F90E081709927009739F484E090E0ED
:1003A000909334018093330111C080E290E0FC010E
:1003B0008081882F90E081709927009739F083E041
:1003C00090E0909334018093330129C028C080E2EB
:1003D00090E0FC018081882F90E081709927009740
:1003E00039F081E090E0909334018093330111C0A3
:1003F00080E290E0FC018081882F90E08170992755
:10040000009739F484E090E09093340180933301B5
:1004100006C005C010923401109233010000809193
:1004200033019091340182309105A1F08330910520
:1004300020F48130910541F02DC083309105B9F051
:100440008430910509F126C060E070E0CB010E9484
:10045000900020C08091350190913601A091370124
:10046000B0913801BC01CD010E94900013C0809171
:10047000350190913601A0913701B0913801BC014E
:10048000CD010E94900006C060E070E0CB010E94A8
:1004900090000000DF91CF910895CF93DF93CDB707
:1004A000DEB78091390190913A018130910531F1A7
:1004B0008130910528F08230910509F4A0C0C4C0B4
:1004C00080912E01882F90E0880F991F880F991F27
:1004D000825F9E4FFC0180819181A281B3818093D4
:1004E000350190933601A0933701B093380181E034
:1004F00090E090933A0180933901ABC080E290E0A4
:10050000FC018081882F90E08670992784309105C6
:1005100039F580912E01882329F080912E01815098
:1005200080932E0180912E01882F90E0880F991FD3
:10053000880F991F825F9E4FFC0180819181A2816B
:10054000B3818093350190933601A0933701B09326
:10055000380182E090E090933A01809339014EC0D7
:1005600080E290E0FC018081882F90E086709927DE
:100570008230910539F580912E01873028F48091E1
:100580002E018F5F80932E0180912E01882F90E0A5
:10059000880F991F880F991F825F9E4FFC018081F1
:1005A0009181A281B3818093350190933601A0930C
:1005B0003701B093380182E090E090933A01809344
:1005C00039011CC080E290E0FC018081882F90E01E
:1005D00086709927009759F080E290E0FC018081B5
:1005E000882F90E0867099278630910539F481E054
:1005F00090E090933A01809339012BC02AC080E2A9
:1006000090E0FC018081882F90E0867099278630E9
:10061000910539F481E090E090933A01809339019B
:1006200012C080E290E0FC018081882F90E086700B
:1006300099278630910539F082E090E090933A0155
:100640008093390106C005C010923A011092390119
:1006500000008091390190913A018130910521F09B
:100660008230910519F003C0000001C00000DF9145
:10067000CF910895CF93DF93CDB7DEB781E290E0BD
:10068000FC01108282E290E02FEFFC01208384E2E3
:1006900090E02FEFFC01208385E290E0FC011082C6
:1006A0000E942F01109234011092330110923A01EE
:1006B000109239010E9454010E944D02FBCF9CD040
:1006C00008F481E008950CD0D2C0CAD040F0C1D067
:1006D00030F021F45F3F19F0B3C05111FCC0B6C037
:1006E000D7D098F39923C9F35523B1F3951B550B34
:1006F000BB27AA2762177307840738F09F5F5F4FF5
:10070000220F331F441FAA1FA9F333D00E2E3AF035
:10071000E0E830D091505040E695001CCAF729D04F
:10072000FE2F27D0660F771F881FBB1F261737079E
:100730004807AB07B0E809F0BB0B802DBF01FF27CE
:1007400093585F4F2AF09E3F510568F079C0C3C0AF
:100750005F3FECF3983EDCF3869577956795B79508
:10076000F7959F5FC9F7880F911D9695879597F923
:100770000895E1E0660F771F881FBB1F621773079C
:100780008407BA0720F0621B730B840BBA0BEE1FB1
:1007900088F7E095089504D06894B1119CC008953D
:1007A0007FD088F09F5790F0B92F9927B751A0F0CC
:1007B000D1F0660F771F881F991F1AF0BA95C9F7F5
:1007C00012C0B13081F086D0B1E0089583C0672FA8
:1007D000782F8827B85F39F0B93FCCF386957795A5
:1007E0006795B395D9F73EF490958095709561958E
:1007F0007F4F8F4F9F4F0895990F0008550FAA0BF9
:10080000E0E8FEEF16161706E807F907C0F0121623
:100810001306E407F50798F0621B730B840B950B26
:1008200039F40A2661F0232B242B252B21F408957B
:100830000A2609F4A140A6958FEF811D811D089518
:1008400097F99F6780E870E060E008959FEF80EC83
:10085000089500240A941616170618060906089526
:1008600000240A9412161306140605060895092E8C
:100870000394000C11F4882352F0BB0F40F4BF2BFB
:1008800011F460FF04C06F5F7F4F8F4F9F4F08953B
:1008900057FD9058440F551F59F05F3F71F0479531
:1008A000880F97FB991F61F09F3F79F08795089516
:1008B000121613061406551FF2CF4695F1DF08C035
:1008C000161617061806991FF1CF86957105610552
:1008D00008940895E894BB2766277727CB0197F9FA
:1008E00008958ADF08F48FEF08950BD0C0CFB1DFF1
:1008F00028F0B6DF18F0952309F0A2CFA7CF112476
:10090000EACFC6DFA0F3959FD1F3950F50E0551FB6
:10091000629FF001729FBB27F00DB11D639FAA2754
:10092000F00DB11DAA1F649F6627B00DA11D661FA3
:10093000829F2227B00DA11D621F739FB00DA11DC4
:10094000621F839FA00D611D221F749F3327A00D7E
:10095000611D231F849F600D211D822F762F6A2F1A
:1009600011249F5750408AF0E1F088234AF0EE0F9F
:10097000FF1FBB1F661F771F881F91505040A9F7AC
:100980009E3F510570F05CCFA6CF5F3FECF3983EE1
:10099000DCF3869577956795B795F795E7959F5F13
:1009A000C1F7FE2B880F911D9695879597F90895AD
:0409B000F894FFCFE9
:1009B4000000000200000000670000000000A4D056
:1009C40082437BD49243A4D0A443719DAE430000E0
:0E09D400C4430000DC43A4F0F64300D002440C
:00000001FF
