:100000000C9446000C9465000C9465000C946500FB
:100010000C9465000C9465000C9465000C946500CC
:100020000C9465000C9465000C9465000C946500BC
:100030000C9465000C9408010C9465000C94650008
:100040000C9465000C9465000C9465000C9465009C
:100050000C9465000C9465000C9465000C9465008C
:100060000C9465000C9465000C9465000C9465007C
:100070000C9465000C9465000C9465000C9465006C
:100080000C9465000C9465000C94650011241FBE4F
:10009000CFEFD0E4DEBFCDBF11E0A0E0B1E0E2ECF5
:1000A000FAE000E00BBF02C007900D92A231B10749
:1000B000D9F711E0A2E1B1E001C01D92A232B1076F
:1000C000E1F70E94B8030C945F050C940000CF93F5
:1000D000DF9300D01F92CDB7DEB789837B836A831D
:1000E00089818A3031F48A819B81BC018DE00E9434
:1000F000670080EC90E0FC018081882F90E08072A6
:1001000099270097B1F386EC90E02981FC012083C8
:1001100080E090E00F900F900F90DF91CF910895C5
:10012000CF93DF9300D000D0CDB7DEB769837A8359
:100130008B839C8389819A81AB81BC8180930E01E2
:1001400090930F01A0931001B093110180910E01C3
:1001500090910F01A0911001B091110180931301B2
:1001600090931401A0931501B09316010F900F9076
:100170000F900F90DF91CF910895CF93DF93CDB77C
:10018000DEB781E890E02BE0FC01208388E890E076
:100190002DE730E0FC01318320838FE690E022E000
:1001A000FC01208384E890E0FC01118210828091A0
:1001B0000E0190910F01A0911001B0911101809357
:1001C000130190931401A0931501B09316018FE5CC
:1001D00090E02FE530E0F90120812068FC012083C8
:1001E000DF91CF910895CF93DF93CDB7DEB781E84C
:1001F00090E0FC011082DF91CF910895CF93DF93BF
:10020000CDB7DEB781E080931201DF91CF910895E1
:100210001F920F9200905F000F92112400905B00DC
:100220000F922F933F934F935F936F937F938F938F
:100230009F93AF93BF93EF93FF93CF93DF93CDB78C
:10024000DEB78091130190911401A0911501B09136
:1002500016010197A109B10980931301909314012C
:10026000A0931501B0931601809113019091140190
:10027000A0911501B09116010097A105B10591F467
:100280000E94FE0080910E0190910F01A09110013B
:10029000B09111018093130190931401A093150163
:1002A000B0931601DF91CF91FF91EF91BF91AF9184
:1002B0009F918F917F916F915F914F913F912F917E
:1002C0000F9000925B000F9000925F000F901F90C4
:1002D00018950F931F93CF93DF9300D000D0CDB725
:1002E000DEB769837A838B839C8380911701909119
:1002F0001801A0911901B0911A019C01AD01698109
:100300007A818B819C810E94E603882309F477C05F
:1003100020E030E0A90169817A818B819C810E9473
:10032000E603882351F481E990E021E930E0F90106
:1003300020812870FC01208309C081E990E021E937
:1003400030E0F90120812360FC01208328E539E3B6
:1003500044E75FE369817A818B819C810E94E60397
:10036000882344F488E990E02FEF3FEFFC013183CC
:10037000208334C020E034E244EF56E469817A817E
:100380008B819C810E94F804181634F488E990E06F
:10039000FC011182108222C008E910E020E030E068
:1003A00040E053E469817A818B819C810E94FC0446
:1003B000DC01CB019C01AD0160E074E284EF9AE4C2
:1003C0000E94EA03DC01CB01BC01CD010E94520472
:1003D000DC01CB010197F8019183808384E990E0EF
:1003E000FC011182108289819A81AB81BC8180934A
:1003F000170190931801A0931901B0931A010F905F
:100400000F900F900F90DF91CF911F910F91089552
:10041000CF93DF93CDB7DEB780E990E020E4FC0115
:10042000208381E990E02BE0FC01208360E070E014
:10043000CB010E946901DF91CF910895CF93DF93A3
:10044000CDB7DEB780E990E0FC01108281E990E051
:10045000FC011082DF91CF910895CF93DF93CDB748
:10046000DEB780911B0190911C0181309105C1F094
:100470008130910548F08230910509F474C08330D1
:10048000910509F4DBC045C160E070E0CB010E943A
:10049000690181E090E090931C0180931B013EC1B3
:1004A00080E290E0FC01808187708093210180913F
:1004B0002101813041F080912101823021F0809131
:1004C00021018430C9F580912101813069F484EAE9
:1004D00090EDA2E8B3E480931D0190931E01A093D8
:1004E0001F01B093200121C080912101823069F465
:1004F0008BE794EDA2E9B3E480931D0190931E0174
:10050000A0931F01B093200110C08091210184307D
:1005100061F484EA90EDA4EAB3E480931D01909322
:100520001E01A0931F01B093200182E090E0909300
:100530001C0180931B0116C080912101882339F092
:1005400083E090E090931C0180931B010BC080918D
:100550002101882339F481E090E090931C0180937D
:100560001B01DCC0DBC080E290E0FC018081877071
:100570008093210180912101882339F481E090E06A
:1005800090931C0180931B0158C080912101813000
:1005900079F080912101823059F0809121018430DD
:1005A00039F083E090E090931C0180931B0145C0DB
:1005B00080912101813041F080912101823021F030
:1005C000809121018430C9F580912101813069F445
:1005D00084EA90EDA2E8B3E480931D0190931E019C
:1005E000A0931F01B093200121C08091210182308E
:1005F00069F48BE794EDA2E9B3E480931D01909335
:100600001E01A0931F01B093200110C08091210111
:10061000843061F484EA90EDA4EAB3E480931D0190
:1006200090931E01A0931F01B093200182E090E0FF
:1006300090931C0180931B0171C070C080E290E018
:10064000FC018081877080932101809121018823A2
:1006500039F481E090E090931C0180931B0158C015
:1006600080912101813041F080912101823021F07F
:10067000809121018430C9F580912101813069F494
:1006800084EA90EDA2E8B3E480931D0190931E01EB
:10069000A0931F01B093200121C0809121018230DD
:1006A00069F48BE794EDA2E9B3E480931D01909384
:1006B0001E01A0931F01B093200110C08091210161
:1006C000843061F484EA90EDA4EAB3E480931D01E0
:1006D00090931E01A0931F01B093200182E090E04F
:1006E00090931C0180931B0113C0809121018130E4
:1006F00079F080912101823059F08091210184307C
:1007000039F083E090E090931C0180931B0106C0B8
:1007100005C010921C0110921B01000080911B016A
:1007200090911C018230910569F083309105B9F0F8
:100730008130910509F019C060E070E0CB010E94A2
:10074000690113C080911D0190911E01A0911F01AC
:10075000B0912001BC01CD010E94690106C060E09A
:1007600070E0CB010E9469010000DF91CF910895F4
:10077000CF93DF93CDB7DEB781E290E0FC0110822A
:1007800082E290E02FEFFC01208384E290E02FEFE3
:10079000FC01208385E290E0FC01108264E670E0B9
:1007A00080E090E00E9490000E94BD000E9408023C
:1007B00010921C0110921B010E942D0200008091DA
:1007C00012018823E1F310921201F6CF9CD008F4B5
:1007D00081E008950CD0D2C0CAD040F0C1D030F032
:1007E00021F45F3F19F0B3C05111FCC0B6C0D7D09F
:1007F00098F39923C9F35523B1F3951B550BBB27E8
:10080000AA2762177307840738F09F5F5F4F220F94
:10081000331F441FAA1FA9F333D00E2E3AF0E0E88D
:1008200030D091505040E695001CCAF729D0FE2FD9
:1008300027D0660F771F881FBB1F2617370748076B
:10084000AB07B0E809F0BB0B802DBF01FF27935821
:100850005F4F2AF09E3F510568F079C0C3C05F3FEB
:10086000ECF3983EDCF3869577956795B795F79509
:100870009F5FC9F7880F911D9695879597F9089501
:10088000E1E0660F771F881FBB1F6217730784079D
:10089000BA0720F0621B730B840BBA0BEE1F88F7AC
:1008A000E095089504D06894B1119CC008957FD05C
:1008B00088F09F5790F0B92F9927B751A0F0D1F049
:1008C000660F771F881F991F1AF0BA95C9F712C0D3
:1008D000B13081F086D0B1E0089583C0672F782FC2
:1008E0008827B85F39F0B93FCCF38695779567953F
:1008F000B395D9F73EF490958095709561957F4FAB
:100900008F4F9F4F0895990F0008550FAA0BE0E8ED
:10091000FEEF16161706E807F907C0F012161306C1
:10092000E407F50798F0621B730B840B950B39F401
:100930000A2661F0232B242B252B21F408950A2667
:1009400009F4A140A6958FEF811D811D089597F9A7
:100950009F6780E870E060E008959FEF80EC089565
:1009600000240A941616170618060906089500248E
:100970000A9412161306140605060895092E039408
:10098000000C11F4882352F0BB0F40F4BF2B11F47C
:1009900060FF04C06F5F7F4F8F4F9F4F089557FDDB
:1009A0009058440F551F59F05F3F71F04795880FDD
:1009B00097FB991F61F09F3F79F087950895121674
:1009C00013061406551FF2CF4695F1DF08C0161620
:1009D00017061806991FF1CF8695710561050894D1
:1009E0000895E894BB2766277727CB0197F90895E8
:1009F0008ADF08F48FEF08950BD0C0CFB1DF28F065
:100A0000B6DF18F0952309F0A2CFA7CF1124EACFC3
:100A1000C6DFA0F3959FD1F3950F50E0551F629F5D
:100A2000F001729FBB27F00DB11D639FAA27F00D47
:100A3000B11DAA1F649F6627B00DA11D661F829F6E
:100A40002227B00DA11D621F739FB00DA11D621F53
:100A5000839FA00D611D221F749F3327A00D611D70
:100A6000231F849F600D211D822F762F6A2F112452
:100A70009F5750408AF0E1F088234AF0EE0FFF1FA5
:100A8000BB1F661F771F881F91505040A9F79E3FDC
:100A9000510570F05CCFA6CF5F3FECF3983EDCF3DE
:100AA000869577956795B795F795E7959F5FC1F719
:100AB000FE2B880F911D9695879597F90895F894C8
:020AC000FFCF66
:100AC20000000002000000006700000000000100BA
:020AD200000022
:00000001FF
