:100000000C9446000C9465000C9465000C946500FB
:100010000C9465000C9465000C9465000C946500CC
:100020000C9465000C9465000C9465000C946500BC
:100030000C9465000C9408010C9465000C94650008
:100040000C9465000C9465000C9465000C9465009C
:100050000C9465000C9465000C9465000C9465008C
:100060000C9465000C9465000C9465000C9465007C
:100070000C9465000C9465000C9465000C9465006C
:100080000C9465000C9465000C94650011241FBE4F
:10009000CFEFD0E4DEBFCDBF11E0A0E0B1E0EAE0F9
:1000A000FAE000E00BBF02C007900D92AE34B1073A
:1000B000D9F711E0AEE4B1E001C01D92AF35B10750
:1000C000E1F70E945C030C9403050C940000CF93AD
:1000D000DF9300D01F92CDB7DEB789837B836A831D
:1000E00089818A3031F48A819B81BC018DE00E9434
:1000F000670080EC90E0FC018081882F90E08072A6
:1001000099270097B1F386EC90E02981FC012083C8
:1001100080E090E00F900F900F90DF91CF910895C5
:10012000CF93DF9300D000D0CDB7DEB769837A8359
:100130008B839C8389819A81AB81BC8180930E01E2
:1001400090930F01A0931001B093110180910E01C3
:1001500090910F01A0911001B091110180934F0176
:1001600090935001A0935101B09352010F900F90C2
:100170000F900F90DF91CF910895CF93DF93CDB77C
:10018000DEB781E890E02BE0FC01208388E890E076
:100190002DE730E0FC01318320838FE690E022E000
:1001A000FC01208384E890E0FC01118210828091A0
:1001B0000E0190910F01A0911001B0911101809357
:1001C0004F0190935001A0935101B09352018FE5DC
:1001D00090E02FE530E0F90120812068FC012083C8
:1001E000DF91CF910895CF93DF93CDB7DEB781E84C
:1001F00090E0FC011082DF91CF910895CF93DF93BF
:10020000CDB7DEB781E080934E01DF91CF910895A5
:100210001F920F9200905F000F92112400905B00DC
:100220000F922F933F934F935F936F937F938F938F
:100230009F93AF93BF93EF93FF93CF93DF93CDB78C
:10024000DEB780914F0190915001A0915101B09182
:1002500052010197A109B10980934F019093500178
:10026000A0935101B093520180914F0190915001A0
:10027000A0915101B09152010097A105B10591F4EF
:100280000E94FE0080910E0190910F01A09110013B
:10029000B091110180934F0190935001A0935101AF
:1002A000B0935201DF91CF91FF91EF91BF91AF9148
:1002B0009F918F917F916F915F914F913F912F917E
:1002C0000F9000925B000F9000925F000F901F90C4
:1002D00018950F931F93CF93DF9300D000D0CDB725
:1002E000DEB769837A838B839C83809154019091DC
:1002F0005501A0915601B09157019C01AD01698152
:100300007A818B819C810E948A03882309F477C0BB
:1003100020E030E0A90169817A818B819C810E9473
:100320008A03882351F481E990E021E930E0F90162
:1003300020812870FC01208309C081E990E021E937
:1003400030E0F90120812360FC01208328E539E3B6
:1003500044E75FE369817A818B819C810E948A03F3
:10036000882344F488E990E02FEF3FEFFC013183CC
:10037000208334C020E034E244EF56E469817A817E
:100380008B819C810E949C04181634F488E990E0CB
:10039000FC011182108222C008E910E020E030E068
:1003A00040E053E469817A818B819C810E94A004A2
:1003B000DC01CB019C01AD0160E074E284EF9AE4C2
:1003C0000E948E03DC01CB01BC01CD010E94F6032B
:1003D000DC01CB010197F8019183808384E990E0EF
:1003E000FC011182108289819A81AB81BC8180934A
:1003F000540190935501A0935601B09357010F906B
:100400000F900F900F90DF91CF911F910F91089552
:10041000CF93DF93CDB7DEB780E990E020E4FC0115
:10042000208381E990E02BE0FC01208360E070E014
:10043000CB010E946901DF91CF910895CF93DF93A3
:10044000CDB7DEB780E990E0FC01108281E990E051
:10045000FC011082DF91CF910895CF93DF93CDB748
:10046000DEB7809158019091590181309105B9F022
:100470008130910540F082309105C1F183309105C2
:1004800009F4C8C0EAC060E070E0CB010E946901D5
:1004900081E090E09093590180935801E3C080E29D
:1004A00090E0FC018081882F90E08170992700976F
:1004B00059F41092530110925E0182E090E0909303
:1004C00059018093580111C080E290E0FC018081C5
:1004D000882F90E081709927009739F081E090E0B3
:1004E0009093590180935801BDC0BCC080915301C5
:1004F0008B3079F580915301882F90E08E5B9E4F71
:10050000FC01908180915E01981719F580E290E0DE
:10051000FC018081882F90E081709927009739F045
:1005200081E090E0909359018093580111C080E2DE
:1005300090E0FC018081882F90E0817099270097DE
:1005400039F483E090E0909359018093580161C0A1
:1005500060C080915301882F90E08E5B9E4FFC011C
:10056000908180915E01981729F510925E0180912B
:1005700053018F5F8093530180915301882F90E046
:10058000880F991F880F991F8E5E9E4FFC018081F6
:100590009181A281B38180935A0190935B01A093D2
:1005A0005C01B0935D0182E090E0909359018093EB
:1005B00058012FC080915301882F90E08E5B9E4F91
:1005C000FC01908180915E01891718F580915E0190
:1005D0008F5F80935E0180915301882F90E0880F98
:1005E000991F880F991F8E5E9E4FFC01808191811B
:1005F000A281B38180935A0190935B01A0935C0127
:10060000B0935D0182E090E090935901809358018E
:1006100029C028C080E290E0FC018081882F90E012
:1006200081709927009739F081E090E0909359010B
:100630008093580111C080E290E0FC018081882FF6
:1006400090E081709927009739F483E090E09093CF
:1006500059018093580106C005C0109259011092AB
:100660005801000080915801909159018230910504
:1006700069F083309105B9F08130910509F019C016
:1006800060E070E0CB010E94690113C080915A01C3
:1006900090915B01A0915C01B0915D01BC01CD0125
:1006A0000E94690106C060E070E0CB010E94690110
:1006B0000000DF91CF910895CF93DF93CDB7DEB7E0
:1006C00081E290E0FC01108282E290E02FEFFC01D9
:1006D000208384E290E02FEFFC01208385E290E00C
:1006E000FC0110826AE070E080E090E00E949000DF
:1006F0000E9408020E94BD001092590110925801F8
:100700000E942D02000080914E018823E1F3109297
:100710004E01F6CF9CD008F481E008950CD0D2C0F1
:10072000CAD040F0C1D030F021F45F3F19F0B3C01F
:100730005111FCC0B6C0D7D098F39923C9F3552303
:10074000B1F3951B550BBB27AA27621773078407C4
:1007500038F09F5F5F4F220F331F441FAA1FA9F37A
:1007600033D00E2E3AF0E0E830D091505040E6956C
:10077000001CCAF729D0FE2F27D0660F771F881FCD
:10078000BB1F261737074807AB07B0E809F0BB0BBC
:10079000802DBF01FF2793585F4F2AF09E3F5105E0
:1007A00068F079C0C3C05F3FECF3983EDCF38695F8
:1007B00077956795B795F7959F5FC9F7880F911D56
:1007C0009695879597F90895E1E0660F771F881F42
:1007D000BB1F621773078407BA0720F0621B730BF5
:1007E000840BBA0BEE1F88F7E095089504D0689447
:1007F000B1119CC008957FD088F09F5790F0B92F19
:100800009927B751A0F0D1F0660F771F881F991F65
:100810001AF0BA95C9F712C0B13081F086D0B1E0B4
:10082000089583C0672F782F8827B85F39F0B93FC4
:10083000CCF3869577956795B395D9F73EF4909567
:100840008095709561957F4F8F4F9F4F0895990FB9
:100850000008550FAA0BE0E8FEEF16161706E8078A
:10086000F907C0F012161306E407F50798F0621BAB
:10087000730B840B950B39F40A2661F0232B242B80
:10088000252B21F408950A2609F4A140A6958FEF9F
:10089000811D811D089597F99F6780E870E060E0F1
:1008A00008959FEF80EC089500240A941616170609
:1008B00018060906089500240A9412161306140651
:1008C00005060895092E0394000C11F4882352F0B4
:1008D000BB0F40F4BF2B11F460FF04C06F5F7F4F6C
:1008E0008F4F9F4F089557FD9058440F551F59F053
:1008F0005F3F71F04795880F97FB991F61F09F3F0D
:1009000079F087950895121613061406551FF2CF35
:100910004695F1DF08C0161617061806991FF1CF85
:1009200086957105610508940895E894BB276627AC
:100930007727CB0197F908958ADF08F48FEF0895A0
:100940000BD0C0CFB1DF28F0B6DF18F0952309F047
:10095000A2CFA7CF1124EACFC6DFA0F3959FD1F392
:10096000950F50E0551F629FF001729FBB27F00D5D
:10097000B11D639FAA27F00DB11DAA1F649F6627B2
:10098000B00DA11D661F829F2227B00DA11D621F01
:10099000739FB00DA11D621F839FA00D611D221FBB
:1009A000749F3327A00D611D231F849F600D211D9F
:1009B000822F762F6A2F11249F5750408AF0E1F042
:1009C00088234AF0EE0FFF1FBB1F661F771F881F8B
:1009D00091505040A9F79E3F510570F05CCFA6CFD3
:1009E0005F3FECF3983EDCF3869577956795B79576
:1009F000F795E7959F5FC1F7FE2B880F911D9695A0
:0A0A0000879597F90895F894FFCF49
:100A0A000000000200000000670000000000010072
:100A1A000000A4D0A443A4D082430000C443000031
:100A2A00DC4300D0024400000000A4D0A4437BD4DD
:100A3A009243719DAE430000DC4300D002440000A3
:0E0A4A00C44305040202060A02020204040765
:00000001FF
